{
	"TxPermissions.sol": {
		"TransactionPermissions": {
			"abi": [
				{
					"inputs": [],
					"stateMutability": "nonpayable",
					"type": "constructor"
				},
				{
					"inputs": [
						{
							"internalType": "address",
							"name": "sender",
							"type": "address"
						}
					],
					"name": "allowedTxTypes",
					"outputs": [
						{
							"internalType": "uint32",
							"name": "",
							"type": "uint32"
						}
					],
					"stateMutability": "view",
					"type": "function"
				},
				{
					"inputs": [
						{
							"internalType": "address",
							"name": "approved",
							"type": "address"
						},
						{
							"internalType": "bool",
							"name": "all",
							"type": "bool"
						},
						{
							"internalType": "bool",
							"name": "basic",
							"type": "bool"
						},
						{
							"internalType": "bool",
							"name": "call",
							"type": "bool"
						},
						{
							"internalType": "bool",
							"name": "create",
							"type": "bool"
						},
						{
							"internalType": "bool",
							"name": "priv",
							"type": "bool"
						}
					],
					"name": "setPermissions",
					"outputs": [],
					"stateMutability": "nonpayable",
					"type": "function"
				}
			],
			"devdoc": {
				"kind": "dev",
				"methods": {},
				"version": 1
			},
			"evm": {
				"assembly": "    /* \"TxPermissions.sol\":70:1461  contract TransactionPermissions {... */\n  mstore(0x40, 0x80)\n    /* \"TxPermissions.sol\":437:491  constructor() {... */\n  callvalue\n  dup1\n  iszero\n  tag_1\n  jumpi\n  0x00\n  dup1\n  revert\ntag_1:\n  pop\n    /* \"TxPermissions.sol\":473:483  msg.sender */\n  caller\n    /* \"TxPermissions.sol\":462:470  deployer */\n  0x01\n  0x00\n    /* \"TxPermissions.sol\":462:483  deployer = msg.sender */\n  0x0100\n  exp\n  dup2\n  sload\n  dup2\n  0xffffffffffffffffffffffffffffffffffffffff\n  mul\n  not\n  and\n  swap1\n  dup4\n  0xffffffffffffffffffffffffffffffffffffffff\n  and\n  mul\n  or\n  swap1\n  sstore\n  pop\n    /* \"TxPermissions.sol\":70:1461  contract TransactionPermissions {... */\n  dataSize(sub_0)\n  dup1\n  dataOffset(sub_0)\n  0x00\n  codecopy\n  0x00\n  return\nstop\n\nsub_0: assembly {\n        /* \"TxPermissions.sol\":70:1461  contract TransactionPermissions {... */\n      mstore(0x40, 0x80)\n      callvalue\n      dup1\n      iszero\n      tag_1\n      jumpi\n      0x00\n      dup1\n      revert\n    tag_1:\n      pop\n      jumpi(tag_2, lt(calldatasize, 0x04))\n      shr(0xe0, calldataload(0x00))\n      dup1\n      0xe1751221\n      eq\n      tag_3\n      jumpi\n      dup1\n      0xf1416030\n      eq\n      tag_4\n      jumpi\n    tag_2:\n      0x00\n      dup1\n      revert\n        /* \"TxPermissions.sol\":499:624  function allowedTxTypes(address sender) public view returns (uint32)... */\n    tag_3:\n      tag_5\n      0x04\n      dup1\n      calldatasize\n      sub\n      dup2\n      add\n      swap1\n      tag_6\n      swap2\n      swap1\n      tag_7\n      jump\t// in\n    tag_6:\n      tag_8\n      jump\t// in\n    tag_5:\n      mload(0x40)\n      tag_9\n      swap2\n      swap1\n      tag_10\n      jump\t// in\n    tag_9:\n      mload(0x40)\n      dup1\n      swap2\n      sub\n      swap1\n      return\n        /* \"TxPermissions.sol\":632:1326  function setPermissions(address approved, bool all, bool basic, bool call, bool create, bool priv) public {... */\n    tag_4:\n      tag_11\n      0x04\n      dup1\n      calldatasize\n      sub\n      dup2\n      add\n      swap1\n      tag_12\n      swap2\n      swap1\n      tag_13\n      jump\t// in\n    tag_12:\n      tag_14\n      jump\t// in\n    tag_11:\n      stop\n        /* \"TxPermissions.sol\":499:624  function allowedTxTypes(address sender) public view returns (uint32)... */\n    tag_8:\n        /* \"TxPermissions.sol\":560:566  uint32 */\n      0x00\n        /* \"TxPermissions.sol\":591:608  approvedAddresses */\n      dup1\n        /* \"TxPermissions.sol\":591:616  approvedAddresses[sender] */\n      0x00\n        /* \"TxPermissions.sol\":609:615  sender */\n      dup4\n        /* \"TxPermissions.sol\":591:616  approvedAddresses[sender] */\n      0xffffffffffffffffffffffffffffffffffffffff\n      and\n      0xffffffffffffffffffffffffffffffffffffffff\n      and\n      dup2\n      mstore\n      0x20\n      add\n      swap1\n      dup2\n      mstore\n      0x20\n      add\n      0x00\n      keccak256\n      0x00\n      swap1\n      sload\n      swap1\n      0x0100\n      exp\n      swap1\n      div\n      0xffffffff\n      and\n        /* \"TxPermissions.sol\":584:616  return approvedAddresses[sender] */\n      swap1\n      pop\n        /* \"TxPermissions.sol\":499:624  function allowedTxTypes(address sender) public view returns (uint32)... */\n      swap2\n      swap1\n      pop\n      jump\t// out\n        /* \"TxPermissions.sol\":632:1326  function setPermissions(address approved, bool all, bool basic, bool call, bool create, bool priv) public {... */\n    tag_14:\n        /* \"TxPermissions.sol\":771:779  deployer */\n      0x01\n      0x00\n      swap1\n      sload\n      swap1\n      0x0100\n      exp\n      swap1\n      div\n      0xffffffffffffffffffffffffffffffffffffffff\n      and\n        /* \"TxPermissions.sol\":757:779  msg.sender == deployer */\n      0xffffffffffffffffffffffffffffffffffffffff\n      and\n        /* \"TxPermissions.sol\":757:767  msg.sender */\n      caller\n        /* \"TxPermissions.sol\":757:779  msg.sender == deployer */\n      0xffffffffffffffffffffffffffffffffffffffff\n      and\n      eq\n        /* \"TxPermissions.sol\":749:821  require(msg.sender == deployer, \"Only the admin can call this function\") */\n      tag_17\n      jumpi\n      mload(0x40)\n      0x08c379a000000000000000000000000000000000000000000000000000000000\n      dup2\n      mstore\n      0x04\n      add\n      tag_18\n      swap1\n      tag_19\n      jump\t// in\n    tag_18:\n      mload(0x40)\n      dup1\n      swap2\n      sub\n      swap1\n      revert\n    tag_17:\n        /* \"TxPermissions.sol\":843:847  true */\n      0x01\n        /* \"TxPermissions.sol\":836:847  all == true */\n      iszero\n      iszero\n        /* \"TxPermissions.sol\":836:839  all */\n      dup6\n        /* \"TxPermissions.sol\":836:847  all == true */\n      iszero\n      iszero\n      sub\n        /* \"TxPermissions.sol\":832:1319  if (all == true){... */\n      tag_20\n      jumpi\n        /* \"TxPermissions.sol\":863:885  approve(approved, All) */\n      tag_21\n        /* \"TxPermissions.sol\":871:879  approved */\n      dup7\n        /* \"TxPermissions.sol\":202:212  0xffffffff */\n      0xffffffff\n        /* \"TxPermissions.sol\":863:870  approve */\n      tag_22\n        /* \"TxPermissions.sol\":863:885  approve(approved, All) */\n      jump\t// in\n    tag_21:\n        /* \"TxPermissions.sol\":832:1319  if (all == true){... */\n      jump(tag_23)\n    tag_20:\n        /* \"TxPermissions.sol\":916:926  uint32 ret */\n      0x00\n        /* \"TxPermissions.sol\":961:965  true */\n      0x01\n        /* \"TxPermissions.sol\":952:965  basic == true */\n      iszero\n      iszero\n        /* \"TxPermissions.sol\":952:957  basic */\n      dup6\n        /* \"TxPermissions.sol\":952:965  basic == true */\n      iszero\n      iszero\n      sub\n        /* \"TxPermissions.sol\":948:1018  if (basic == true){... */\n      tag_24\n      jumpi\n        /* \"TxPermissions.sol\":243:247  0x01 */\n      0x01\n        /* \"TxPermissions.sol\":991:994  ret */\n      dup2\n        /* \"TxPermissions.sol\":991:1002  ret | Basic */\n      or\n        /* \"TxPermissions.sol\":985:1002  ret = ret | Basic */\n      swap1\n      pop\n        /* \"TxPermissions.sol\":948:1018  if (basic == true){... */\n    tag_24:\n        /* \"TxPermissions.sol\":1044:1048  true */\n      0x01\n        /* \"TxPermissions.sol\":1036:1048  call == true */\n      iszero\n      iszero\n        /* \"TxPermissions.sol\":1036:1040  call */\n      dup5\n        /* \"TxPermissions.sol\":1036:1048  call == true */\n      iszero\n      iszero\n      sub\n        /* \"TxPermissions.sol\":1032:1100  if (call == true){... */\n      tag_25\n      jumpi\n        /* \"TxPermissions.sol\":277:281  0x02 */\n      0x02\n        /* \"TxPermissions.sol\":1074:1077  ret */\n      dup2\n        /* \"TxPermissions.sol\":1074:1084  ret | Call */\n      or\n        /* \"TxPermissions.sol\":1068:1084  ret = ret | Call */\n      swap1\n      pop\n        /* \"TxPermissions.sol\":1032:1100  if (call == true){... */\n    tag_25:\n        /* \"TxPermissions.sol\":1128:1132  true */\n      0x01\n        /* \"TxPermissions.sol\":1118:1132  create == true */\n      iszero\n      iszero\n        /* \"TxPermissions.sol\":1118:1124  create */\n      dup4\n        /* \"TxPermissions.sol\":1118:1132  create == true */\n      iszero\n      iszero\n      sub\n        /* \"TxPermissions.sol\":1114:1186  if (create == true){... */\n      tag_26\n      jumpi\n        /* \"TxPermissions.sol\":313:317  0x04 */\n      0x04\n        /* \"TxPermissions.sol\":1158:1161  ret */\n      dup2\n        /* \"TxPermissions.sol\":1158:1170  ret | Create */\n      or\n        /* \"TxPermissions.sol\":1152:1170  ret = ret | Create */\n      swap1\n      pop\n        /* \"TxPermissions.sol\":1114:1186  if (create == true){... */\n    tag_26:\n        /* \"TxPermissions.sol\":1212:1216  true */\n      0x01\n        /* \"TxPermissions.sol\":1204:1216  priv == true */\n      iszero\n      iszero\n        /* \"TxPermissions.sol\":1204:1208  priv */\n      dup3\n        /* \"TxPermissions.sol\":1204:1216  priv == true */\n      iszero\n      iszero\n      sub\n        /* \"TxPermissions.sol\":1200:1271  if (priv == true){... */\n      tag_27\n      jumpi\n        /* \"TxPermissions.sol\":350:354  0x08 */\n      0x08\n        /* \"TxPermissions.sol\":1242:1245  ret */\n      dup2\n        /* \"TxPermissions.sol\":1242:1255  ret | Private */\n      or\n        /* \"TxPermissions.sol\":1236:1255  ret = ret | Private */\n      swap1\n      pop\n        /* \"TxPermissions.sol\":1200:1271  if (priv == true){... */\n    tag_27:\n        /* \"TxPermissions.sol\":1285:1307  approve(approved, ret) */\n      tag_28\n        /* \"TxPermissions.sol\":1293:1301  approved */\n      dup8\n        /* \"TxPermissions.sol\":1303:1306  ret */\n      dup3\n        /* \"TxPermissions.sol\":1285:1292  approve */\n      tag_22\n        /* \"TxPermissions.sol\":1285:1307  approve(approved, ret) */\n      jump\t// in\n    tag_28:\n        /* \"TxPermissions.sol\":901:1319  {... */\n      pop\n        /* \"TxPermissions.sol\":832:1319  if (all == true){... */\n    tag_23:\n        /* \"TxPermissions.sol\":632:1326  function setPermissions(address approved, bool all, bool basic, bool call, bool create, bool priv) public {... */\n      pop\n      pop\n      pop\n      pop\n      pop\n      pop\n      jump\t// out\n        /* \"TxPermissions.sol\":1334:1458  function approve(address approved, uint32 permissions) internal {... */\n    tag_22:\n        /* \"TxPermissions.sol\":1439:1450  permissions */\n      dup1\n        /* \"TxPermissions.sol\":1409:1426  approvedAddresses */\n      0x00\n        /* \"TxPermissions.sol\":1409:1436  approvedAddresses[approved] */\n      dup1\n        /* \"TxPermissions.sol\":1427:1435  approved */\n      dup5\n        /* \"TxPermissions.sol\":1409:1436  approvedAddresses[approved] */\n      0xffffffffffffffffffffffffffffffffffffffff\n      and\n      0xffffffffffffffffffffffffffffffffffffffff\n      and\n      dup2\n      mstore\n      0x20\n      add\n      swap1\n      dup2\n      mstore\n      0x20\n      add\n      0x00\n      keccak256\n      0x00\n        /* \"TxPermissions.sol\":1409:1450  approvedAddresses[approved] = permissions */\n      0x0100\n      exp\n      dup2\n      sload\n      dup2\n      0xffffffff\n      mul\n      not\n      and\n      swap1\n      dup4\n      0xffffffff\n      and\n      mul\n      or\n      swap1\n      sstore\n      pop\n        /* \"TxPermissions.sol\":1334:1458  function approve(address approved, uint32 permissions) internal {... */\n      pop\n      pop\n      jump\t// out\n        /* \"#utility.yul\":88:205   */\n    tag_31:\n        /* \"#utility.yul\":197:198   */\n      0x00\n        /* \"#utility.yul\":194:195   */\n      dup1\n        /* \"#utility.yul\":187:199   */\n      revert\n        /* \"#utility.yul\":334:460   */\n    tag_33:\n        /* \"#utility.yul\":371:378   */\n      0x00\n        /* \"#utility.yul\":411:453   */\n      0xffffffffffffffffffffffffffffffffffffffff\n        /* \"#utility.yul\":404:409   */\n      dup3\n        /* \"#utility.yul\":400:454   */\n      and\n        /* \"#utility.yul\":389:454   */\n      swap1\n      pop\n        /* \"#utility.yul\":334:460   */\n      swap2\n      swap1\n      pop\n      jump\t// out\n        /* \"#utility.yul\":466:562   */\n    tag_34:\n        /* \"#utility.yul\":503:510   */\n      0x00\n        /* \"#utility.yul\":532:556   */\n      tag_51\n        /* \"#utility.yul\":550:555   */\n      dup3\n        /* \"#utility.yul\":532:556   */\n      tag_33\n      jump\t// in\n    tag_51:\n        /* \"#utility.yul\":521:556   */\n      swap1\n      pop\n        /* \"#utility.yul\":466:562   */\n      swap2\n      swap1\n      pop\n      jump\t// out\n        /* \"#utility.yul\":568:690   */\n    tag_35:\n        /* \"#utility.yul\":641:665   */\n      tag_53\n        /* \"#utility.yul\":659:664   */\n      dup2\n        /* \"#utility.yul\":641:665   */\n      tag_34\n      jump\t// in\n    tag_53:\n        /* \"#utility.yul\":634:639   */\n      dup2\n        /* \"#utility.yul\":631:666   */\n      eq\n        /* \"#utility.yul\":621:684   */\n      tag_54\n      jumpi\n        /* \"#utility.yul\":680:681   */\n      0x00\n        /* \"#utility.yul\":677:678   */\n      dup1\n        /* \"#utility.yul\":670:682   */\n      revert\n        /* \"#utility.yul\":621:684   */\n    tag_54:\n        /* \"#utility.yul\":568:690   */\n      pop\n      jump\t// out\n        /* \"#utility.yul\":696:835   */\n    tag_36:\n        /* \"#utility.yul\":742:747   */\n      0x00\n        /* \"#utility.yul\":780:786   */\n      dup2\n        /* \"#utility.yul\":767:787   */\n      calldataload\n        /* \"#utility.yul\":758:787   */\n      swap1\n      pop\n        /* \"#utility.yul\":796:829   */\n      tag_56\n        /* \"#utility.yul\":823:828   */\n      dup2\n        /* \"#utility.yul\":796:829   */\n      tag_35\n      jump\t// in\n    tag_56:\n        /* \"#utility.yul\":696:835   */\n      swap3\n      swap2\n      pop\n      pop\n      jump\t// out\n        /* \"#utility.yul\":841:1170   */\n    tag_7:\n        /* \"#utility.yul\":900:906   */\n      0x00\n        /* \"#utility.yul\":949:951   */\n      0x20\n        /* \"#utility.yul\":937:946   */\n      dup3\n        /* \"#utility.yul\":928:935   */\n      dup5\n        /* \"#utility.yul\":924:947   */\n      sub\n        /* \"#utility.yul\":920:952   */\n      slt\n        /* \"#utility.yul\":917:1036   */\n      iszero\n      tag_58\n      jumpi\n        /* \"#utility.yul\":955:1034   */\n      tag_59\n      tag_31\n      jump\t// in\n    tag_59:\n        /* \"#utility.yul\":917:1036   */\n    tag_58:\n        /* \"#utility.yul\":1075:1076   */\n      0x00\n        /* \"#utility.yul\":1100:1153   */\n      tag_60\n        /* \"#utility.yul\":1145:1152   */\n      dup5\n        /* \"#utility.yul\":1136:1142   */\n      dup3\n        /* \"#utility.yul\":1125:1134   */\n      dup6\n        /* \"#utility.yul\":1121:1143   */\n      add\n        /* \"#utility.yul\":1100:1153   */\n      tag_36\n      jump\t// in\n    tag_60:\n        /* \"#utility.yul\":1090:1153   */\n      swap2\n      pop\n        /* \"#utility.yul\":1046:1163   */\n      pop\n        /* \"#utility.yul\":841:1170   */\n      swap3\n      swap2\n      pop\n      pop\n      jump\t// out\n        /* \"#utility.yul\":1176:1269   */\n    tag_37:\n        /* \"#utility.yul\":1212:1219   */\n      0x00\n        /* \"#utility.yul\":1252:1262   */\n      0xffffffff\n        /* \"#utility.yul\":1245:1250   */\n      dup3\n        /* \"#utility.yul\":1241:1263   */\n      and\n        /* \"#utility.yul\":1230:1263   */\n      swap1\n      pop\n        /* \"#utility.yul\":1176:1269   */\n      swap2\n      swap1\n      pop\n      jump\t// out\n        /* \"#utility.yul\":1275:1390   */\n    tag_38:\n        /* \"#utility.yul\":1360:1383   */\n      tag_63\n        /* \"#utility.yul\":1377:1382   */\n      dup2\n        /* \"#utility.yul\":1360:1383   */\n      tag_37\n      jump\t// in\n    tag_63:\n        /* \"#utility.yul\":1355:1358   */\n      dup3\n        /* \"#utility.yul\":1348:1384   */\n      mstore\n        /* \"#utility.yul\":1275:1390   */\n      pop\n      pop\n      jump\t// out\n        /* \"#utility.yul\":1396:1614   */\n    tag_10:\n        /* \"#utility.yul\":1487:1491   */\n      0x00\n        /* \"#utility.yul\":1525:1527   */\n      0x20\n        /* \"#utility.yul\":1514:1523   */\n      dup3\n        /* \"#utility.yul\":1510:1528   */\n      add\n        /* \"#utility.yul\":1502:1528   */\n      swap1\n      pop\n        /* \"#utility.yul\":1538:1607   */\n      tag_65\n        /* \"#utility.yul\":1604:1605   */\n      0x00\n        /* \"#utility.yul\":1593:1602   */\n      dup4\n        /* \"#utility.yul\":1589:1606   */\n      add\n        /* \"#utility.yul\":1580:1586   */\n      dup5\n        /* \"#utility.yul\":1538:1607   */\n      tag_38\n      jump\t// in\n    tag_65:\n        /* \"#utility.yul\":1396:1614   */\n      swap3\n      swap2\n      pop\n      pop\n      jump\t// out\n        /* \"#utility.yul\":1620:1710   */\n    tag_39:\n        /* \"#utility.yul\":1654:1661   */\n      0x00\n        /* \"#utility.yul\":1697:1702   */\n      dup2\n        /* \"#utility.yul\":1690:1703   */\n      iszero\n        /* \"#utility.yul\":1683:1704   */\n      iszero\n        /* \"#utility.yul\":1672:1704   */\n      swap1\n      pop\n        /* \"#utility.yul\":1620:1710   */\n      swap2\n      swap1\n      pop\n      jump\t// out\n        /* \"#utility.yul\":1716:1832   */\n    tag_40:\n        /* \"#utility.yul\":1786:1807   */\n      tag_68\n        /* \"#utility.yul\":1801:1806   */\n      dup2\n        /* \"#utility.yul\":1786:1807   */\n      tag_39\n      jump\t// in\n    tag_68:\n        /* \"#utility.yul\":1779:1784   */\n      dup2\n        /* \"#utility.yul\":1776:1808   */\n      eq\n        /* \"#utility.yul\":1766:1826   */\n      tag_69\n      jumpi\n        /* \"#utility.yul\":1822:1823   */\n      0x00\n        /* \"#utility.yul\":1819:1820   */\n      dup1\n        /* \"#utility.yul\":1812:1824   */\n      revert\n        /* \"#utility.yul\":1766:1826   */\n    tag_69:\n        /* \"#utility.yul\":1716:1832   */\n      pop\n      jump\t// out\n        /* \"#utility.yul\":1838:1971   */\n    tag_41:\n        /* \"#utility.yul\":1881:1886   */\n      0x00\n        /* \"#utility.yul\":1919:1925   */\n      dup2\n        /* \"#utility.yul\":1906:1926   */\n      calldataload\n        /* \"#utility.yul\":1897:1926   */\n      swap1\n      pop\n        /* \"#utility.yul\":1935:1965   */\n      tag_71\n        /* \"#utility.yul\":1959:1964   */\n      dup2\n        /* \"#utility.yul\":1935:1965   */\n      tag_40\n      jump\t// in\n    tag_71:\n        /* \"#utility.yul\":1838:1971   */\n      swap3\n      swap2\n      pop\n      pop\n      jump\t// out\n        /* \"#utility.yul\":1977:3004   */\n    tag_13:\n        /* \"#utility.yul\":2066:2072   */\n      0x00\n        /* \"#utility.yul\":2074:2080   */\n      dup1\n        /* \"#utility.yul\":2082:2088   */\n      0x00\n        /* \"#utility.yul\":2090:2096   */\n      dup1\n        /* \"#utility.yul\":2098:2104   */\n      0x00\n        /* \"#utility.yul\":2106:2112   */\n      dup1\n        /* \"#utility.yul\":2155:2158   */\n      0xc0\n        /* \"#utility.yul\":2143:2152   */\n      dup8\n        /* \"#utility.yul\":2134:2141   */\n      dup10\n        /* \"#utility.yul\":2130:2153   */\n      sub\n        /* \"#utility.yul\":2126:2159   */\n      slt\n        /* \"#utility.yul\":2123:2243   */\n      iszero\n      tag_73\n      jumpi\n        /* \"#utility.yul\":2162:2241   */\n      tag_74\n      tag_31\n      jump\t// in\n    tag_74:\n        /* \"#utility.yul\":2123:2243   */\n    tag_73:\n        /* \"#utility.yul\":2282:2283   */\n      0x00\n        /* \"#utility.yul\":2307:2360   */\n      tag_75\n        /* \"#utility.yul\":2352:2359   */\n      dup10\n        /* \"#utility.yul\":2343:2349   */\n      dup3\n        /* \"#utility.yul\":2332:2341   */\n      dup11\n        /* \"#utility.yul\":2328:2350   */\n      add\n        /* \"#utility.yul\":2307:2360   */\n      tag_36\n      jump\t// in\n    tag_75:\n        /* \"#utility.yul\":2297:2360   */\n      swap7\n      pop\n        /* \"#utility.yul\":2253:2370   */\n      pop\n        /* \"#utility.yul\":2409:2411   */\n      0x20\n        /* \"#utility.yul\":2435:2485   */\n      tag_76\n        /* \"#utility.yul\":2477:2484   */\n      dup10\n        /* \"#utility.yul\":2468:2474   */\n      dup3\n        /* \"#utility.yul\":2457:2466   */\n      dup11\n        /* \"#utility.yul\":2453:2475   */\n      add\n        /* \"#utility.yul\":2435:2485   */\n      tag_41\n      jump\t// in\n    tag_76:\n        /* \"#utility.yul\":2425:2485   */\n      swap6\n      pop\n        /* \"#utility.yul\":2380:2495   */\n      pop\n        /* \"#utility.yul\":2534:2536   */\n      0x40\n        /* \"#utility.yul\":2560:2610   */\n      tag_77\n        /* \"#utility.yul\":2602:2609   */\n      dup10\n        /* \"#utility.yul\":2593:2599   */\n      dup3\n        /* \"#utility.yul\":2582:2591   */\n      dup11\n        /* \"#utility.yul\":2578:2600   */\n      add\n        /* \"#utility.yul\":2560:2610   */\n      tag_41\n      jump\t// in\n    tag_77:\n        /* \"#utility.yul\":2550:2610   */\n      swap5\n      pop\n        /* \"#utility.yul\":2505:2620   */\n      pop\n        /* \"#utility.yul\":2659:2661   */\n      0x60\n        /* \"#utility.yul\":2685:2735   */\n      tag_78\n        /* \"#utility.yul\":2727:2734   */\n      dup10\n        /* \"#utility.yul\":2718:2724   */\n      dup3\n        /* \"#utility.yul\":2707:2716   */\n      dup11\n        /* \"#utility.yul\":2703:2725   */\n      add\n        /* \"#utility.yul\":2685:2735   */\n      tag_41\n      jump\t// in\n    tag_78:\n        /* \"#utility.yul\":2675:2735   */\n      swap4\n      pop\n        /* \"#utility.yul\":2630:2745   */\n      pop\n        /* \"#utility.yul\":2784:2787   */\n      0x80\n        /* \"#utility.yul\":2811:2861   */\n      tag_79\n        /* \"#utility.yul\":2853:2860   */\n      dup10\n        /* \"#utility.yul\":2844:2850   */\n      dup3\n        /* \"#utility.yul\":2833:2842   */\n      dup11\n        /* \"#utility.yul\":2829:2851   */\n      add\n        /* \"#utility.yul\":2811:2861   */\n      tag_41\n      jump\t// in\n    tag_79:\n        /* \"#utility.yul\":2801:2861   */\n      swap3\n      pop\n        /* \"#utility.yul\":2755:2871   */\n      pop\n        /* \"#utility.yul\":2910:2913   */\n      0xa0\n        /* \"#utility.yul\":2937:2987   */\n      tag_80\n        /* \"#utility.yul\":2979:2986   */\n      dup10\n        /* \"#utility.yul\":2970:2976   */\n      dup3\n        /* \"#utility.yul\":2959:2968   */\n      dup11\n        /* \"#utility.yul\":2955:2977   */\n      add\n        /* \"#utility.yul\":2937:2987   */\n      tag_41\n      jump\t// in\n    tag_80:\n        /* \"#utility.yul\":2927:2987   */\n      swap2\n      pop\n        /* \"#utility.yul\":2881:2997   */\n      pop\n        /* \"#utility.yul\":1977:3004   */\n      swap3\n      swap6\n      pop\n      swap3\n      swap6\n      pop\n      swap3\n      swap6\n      jump\t// out\n        /* \"#utility.yul\":3010:3179   */\n    tag_42:\n        /* \"#utility.yul\":3094:3105   */\n      0x00\n        /* \"#utility.yul\":3128:3134   */\n      dup3\n        /* \"#utility.yul\":3123:3126   */\n      dup3\n        /* \"#utility.yul\":3116:3135   */\n      mstore\n        /* \"#utility.yul\":3168:3172   */\n      0x20\n        /* \"#utility.yul\":3163:3166   */\n      dup3\n        /* \"#utility.yul\":3159:3173   */\n      add\n        /* \"#utility.yul\":3144:3173   */\n      swap1\n      pop\n        /* \"#utility.yul\":3010:3179   */\n      swap3\n      swap2\n      pop\n      pop\n      jump\t// out\n        /* \"#utility.yul\":3185:3409   */\n    tag_43:\n        /* \"#utility.yul\":3325:3359   */\n      0x4f6e6c79207468652061646d696e2063616e2063616c6c20746869732066756e\n        /* \"#utility.yul\":3321:3322   */\n      0x00\n        /* \"#utility.yul\":3313:3319   */\n      dup3\n        /* \"#utility.yul\":3309:3323   */\n      add\n        /* \"#utility.yul\":3302:3360   */\n      mstore\n        /* \"#utility.yul\":3394:3401   */\n      0x6374696f6e000000000000000000000000000000000000000000000000000000\n        /* \"#utility.yul\":3389:3391   */\n      0x20\n        /* \"#utility.yul\":3381:3387   */\n      dup3\n        /* \"#utility.yul\":3377:3392   */\n      add\n        /* \"#utility.yul\":3370:3402   */\n      mstore\n        /* \"#utility.yul\":3185:3409   */\n      pop\n      jump\t// out\n        /* \"#utility.yul\":3415:3781   */\n    tag_44:\n        /* \"#utility.yul\":3557:3560   */\n      0x00\n        /* \"#utility.yul\":3578:3645   */\n      tag_84\n        /* \"#utility.yul\":3642:3644   */\n      0x25\n        /* \"#utility.yul\":3637:3640   */\n      dup4\n        /* \"#utility.yul\":3578:3645   */\n      tag_42\n      jump\t// in\n    tag_84:\n        /* \"#utility.yul\":3571:3645   */\n      swap2\n      pop\n        /* \"#utility.yul\":3654:3747   */\n      tag_85\n        /* \"#utility.yul\":3743:3746   */\n      dup3\n        /* \"#utility.yul\":3654:3747   */\n      tag_43\n      jump\t// in\n    tag_85:\n        /* \"#utility.yul\":3772:3774   */\n      0x40\n        /* \"#utility.yul\":3767:3770   */\n      dup3\n        /* \"#utility.yul\":3763:3775   */\n      add\n        /* \"#utility.yul\":3756:3775   */\n      swap1\n      pop\n        /* \"#utility.yul\":3415:3781   */\n      swap2\n      swap1\n      pop\n      jump\t// out\n        /* \"#utility.yul\":3787:4206   */\n    tag_19:\n        /* \"#utility.yul\":3953:3957   */\n      0x00\n        /* \"#utility.yul\":3991:3993   */\n      0x20\n        /* \"#utility.yul\":3980:3989   */\n      dup3\n        /* \"#utility.yul\":3976:3994   */\n      add\n        /* \"#utility.yul\":3968:3994   */\n      swap1\n      pop\n        /* \"#utility.yul\":4040:4049   */\n      dup2\n        /* \"#utility.yul\":4034:4038   */\n      dup2\n        /* \"#utility.yul\":4030:4050   */\n      sub\n        /* \"#utility.yul\":4026:4027   */\n      0x00\n        /* \"#utility.yul\":4015:4024   */\n      dup4\n        /* \"#utility.yul\":4011:4028   */\n      add\n        /* \"#utility.yul\":4004:4051   */\n      mstore\n        /* \"#utility.yul\":4068:4199   */\n      tag_87\n        /* \"#utility.yul\":4194:4198   */\n      dup2\n        /* \"#utility.yul\":4068:4199   */\n      tag_44\n      jump\t// in\n    tag_87:\n        /* \"#utility.yul\":4060:4199   */\n      swap1\n      pop\n        /* \"#utility.yul\":3787:4206   */\n      swap2\n      swap1\n      pop\n      jump\t// out\n\n    auxdata: 0xa2646970667358221220044f2f51ceafa3c94e6d0db8be8bb09fc85fced0e232a41f3ad81f0d672ba71064736f6c63430008120033\n}\n",
				"bytecode": {
					"linkReferences": {},
					"object": "608060405234801561001057600080fd5b5033600160006101000a81548173ffffffffffffffffffffffffffffffffffffffff021916908373ffffffffffffffffffffffffffffffffffffffff1602179055506104b9806100616000396000f3fe608060405234801561001057600080fd5b50600436106100365760003560e01c8063e17512211461003b578063f14160301461006b575b600080fd5b610055600480360381019061005091906102b4565b610087565b6040516100629190610300565b60405180910390f35b61008560048036038101906100809190610353565b6100df565b005b60008060008373ffffffffffffffffffffffffffffffffffffffff1673ffffffffffffffffffffffffffffffffffffffff16815260200190815260200160002060009054906101000a900463ffffffff169050919050565b600160009054906101000a900473ffffffffffffffffffffffffffffffffffffffff1673ffffffffffffffffffffffffffffffffffffffff163373ffffffffffffffffffffffffffffffffffffffff161461016f576040517f08c379a000000000000000000000000000000000000000000000000000000000815260040161016690610463565b60405180910390fd5b600115158515150361018e576101898663ffffffff6101f0565b6101e8565b600060011515851515036101a3576001811790505b60011515841515036101b6576002811790505b60011515831515036101c9576004811790505b60011515821515036101dc576008811790505b6101e687826101f0565b505b505050505050565b806000808473ffffffffffffffffffffffffffffffffffffffff1673ffffffffffffffffffffffffffffffffffffffff16815260200190815260200160002060006101000a81548163ffffffff021916908363ffffffff1602179055505050565b600080fd5b600073ffffffffffffffffffffffffffffffffffffffff82169050919050565b600061028182610256565b9050919050565b61029181610276565b811461029c57600080fd5b50565b6000813590506102ae81610288565b92915050565b6000602082840312156102ca576102c9610251565b5b60006102d88482850161029f565b91505092915050565b600063ffffffff82169050919050565b6102fa816102e1565b82525050565b600060208201905061031560008301846102f1565b92915050565b60008115159050919050565b6103308161031b565b811461033b57600080fd5b50565b60008135905061034d81610327565b92915050565b60008060008060008060c087890312156103705761036f610251565b5b600061037e89828a0161029f565b965050602061038f89828a0161033e565b95505060406103a089828a0161033e565b94505060606103b189828a0161033e565b93505060806103c289828a0161033e565b92505060a06103d389828a0161033e565b9150509295509295509295565b600082825260208201905092915050565b7f4f6e6c79207468652061646d696e2063616e2063616c6c20746869732066756e60008201527f6374696f6e000000000000000000000000000000000000000000000000000000602082015250565b600061044d6025836103e0565b9150610458826103f1565b604082019050919050565b6000602082019050818103600083015261047c81610440565b905091905056fea2646970667358221220044f2f51ceafa3c94e6d0db8be8bb09fc85fced0e232a41f3ad81f0d672ba71064736f6c63430008120033",
					"opcodes": "PUSH1 0x80 PUSH1 0x40 MSTORE CALLVALUE DUP1 ISZERO PUSH2 0x10 JUMPI PUSH1 0x0 DUP1 REVERT JUMPDEST POP CALLER PUSH1 0x1 PUSH1 0x0 PUSH2 0x100 EXP DUP2 SLOAD DUP2 PUSH20 0xFFFFFFFFFFFFFFFFFFFFFFFFFFFFFFFFFFFFFFFF MUL NOT AND SWAP1 DUP4 PUSH20 0xFFFFFFFFFFFFFFFFFFFFFFFFFFFFFFFFFFFFFFFF AND MUL OR SWAP1 SSTORE POP PUSH2 0x4B9 DUP1 PUSH2 0x61 PUSH1 0x0 CODECOPY PUSH1 0x0 RETURN INVALID PUSH1 0x80 PUSH1 0x40 MSTORE CALLVALUE DUP1 ISZERO PUSH2 0x10 JUMPI PUSH1 0x0 DUP1 REVERT JUMPDEST POP PUSH1 0x4 CALLDATASIZE LT PUSH2 0x36 JUMPI PUSH1 0x0 CALLDATALOAD PUSH1 0xE0 SHR DUP1 PUSH4 0xE1751221 EQ PUSH2 0x3B JUMPI DUP1 PUSH4 0xF1416030 EQ PUSH2 0x6B JUMPI JUMPDEST PUSH1 0x0 DUP1 REVERT JUMPDEST PUSH2 0x55 PUSH1 0x4 DUP1 CALLDATASIZE SUB DUP2 ADD SWAP1 PUSH2 0x50 SWAP2 SWAP1 PUSH2 0x2B4 JUMP JUMPDEST PUSH2 0x87 JUMP JUMPDEST PUSH1 0x40 MLOAD PUSH2 0x62 SWAP2 SWAP1 PUSH2 0x300 JUMP JUMPDEST PUSH1 0x40 MLOAD DUP1 SWAP2 SUB SWAP1 RETURN JUMPDEST PUSH2 0x85 PUSH1 0x4 DUP1 CALLDATASIZE SUB DUP2 ADD SWAP1 PUSH2 0x80 SWAP2 SWAP1 PUSH2 0x353 JUMP JUMPDEST PUSH2 0xDF JUMP JUMPDEST STOP JUMPDEST PUSH1 0x0 DUP1 PUSH1 0x0 DUP4 PUSH20 0xFFFFFFFFFFFFFFFFFFFFFFFFFFFFFFFFFFFFFFFF AND PUSH20 0xFFFFFFFFFFFFFFFFFFFFFFFFFFFFFFFFFFFFFFFF AND DUP2 MSTORE PUSH1 0x20 ADD SWAP1 DUP2 MSTORE PUSH1 0x20 ADD PUSH1 0x0 KECCAK256 PUSH1 0x0 SWAP1 SLOAD SWAP1 PUSH2 0x100 EXP SWAP1 DIV PUSH4 0xFFFFFFFF AND SWAP1 POP SWAP2 SWAP1 POP JUMP JUMPDEST PUSH1 0x1 PUSH1 0x0 SWAP1 SLOAD SWAP1 PUSH2 0x100 EXP SWAP1 DIV PUSH20 0xFFFFFFFFFFFFFFFFFFFFFFFFFFFFFFFFFFFFFFFF AND PUSH20 0xFFFFFFFFFFFFFFFFFFFFFFFFFFFFFFFFFFFFFFFF AND CALLER PUSH20 0xFFFFFFFFFFFFFFFFFFFFFFFFFFFFFFFFFFFFFFFF AND EQ PUSH2 0x16F JUMPI PUSH1 0x40 MLOAD PUSH32 0x8C379A000000000000000000000000000000000000000000000000000000000 DUP2 MSTORE PUSH1 0x4 ADD PUSH2 0x166 SWAP1 PUSH2 0x463 JUMP JUMPDEST PUSH1 0x40 MLOAD DUP1 SWAP2 SUB SWAP1 REVERT JUMPDEST PUSH1 0x1 ISZERO ISZERO DUP6 ISZERO ISZERO SUB PUSH2 0x18E JUMPI PUSH2 0x189 DUP7 PUSH4 0xFFFFFFFF PUSH2 0x1F0 JUMP JUMPDEST PUSH2 0x1E8 JUMP JUMPDEST PUSH1 0x0 PUSH1 0x1 ISZERO ISZERO DUP6 ISZERO ISZERO SUB PUSH2 0x1A3 JUMPI PUSH1 0x1 DUP2 OR SWAP1 POP JUMPDEST PUSH1 0x1 ISZERO ISZERO DUP5 ISZERO ISZERO SUB PUSH2 0x1B6 JUMPI PUSH1 0x2 DUP2 OR SWAP1 POP JUMPDEST PUSH1 0x1 ISZERO ISZERO DUP4 ISZERO ISZERO SUB PUSH2 0x1C9 JUMPI PUSH1 0x4 DUP2 OR SWAP1 POP JUMPDEST PUSH1 0x1 ISZERO ISZERO DUP3 ISZERO ISZERO SUB PUSH2 0x1DC JUMPI PUSH1 0x8 DUP2 OR SWAP1 POP JUMPDEST PUSH2 0x1E6 DUP8 DUP3 PUSH2 0x1F0 JUMP JUMPDEST POP JUMPDEST POP POP POP POP POP POP JUMP JUMPDEST DUP1 PUSH1 0x0 DUP1 DUP5 PUSH20 0xFFFFFFFFFFFFFFFFFFFFFFFFFFFFFFFFFFFFFFFF AND PUSH20 0xFFFFFFFFFFFFFFFFFFFFFFFFFFFFFFFFFFFFFFFF AND DUP2 MSTORE PUSH1 0x20 ADD SWAP1 DUP2 MSTORE PUSH1 0x20 ADD PUSH1 0x0 KECCAK256 PUSH1 0x0 PUSH2 0x100 EXP DUP2 SLOAD DUP2 PUSH4 0xFFFFFFFF MUL NOT AND SWAP1 DUP4 PUSH4 0xFFFFFFFF AND MUL OR SWAP1 SSTORE POP POP POP JUMP JUMPDEST PUSH1 0x0 DUP1 REVERT JUMPDEST PUSH1 0x0 PUSH20 0xFFFFFFFFFFFFFFFFFFFFFFFFFFFFFFFFFFFFFFFF DUP3 AND SWAP1 POP SWAP2 SWAP1 POP JUMP JUMPDEST PUSH1 0x0 PUSH2 0x281 DUP3 PUSH2 0x256 JUMP JUMPDEST SWAP1 POP SWAP2 SWAP1 POP JUMP JUMPDEST PUSH2 0x291 DUP2 PUSH2 0x276 JUMP JUMPDEST DUP2 EQ PUSH2 0x29C JUMPI PUSH1 0x0 DUP1 REVERT JUMPDEST POP JUMP JUMPDEST PUSH1 0x0 DUP2 CALLDATALOAD SWAP1 POP PUSH2 0x2AE DUP2 PUSH2 0x288 JUMP JUMPDEST SWAP3 SWAP2 POP POP JUMP JUMPDEST PUSH1 0x0 PUSH1 0x20 DUP3 DUP5 SUB SLT ISZERO PUSH2 0x2CA JUMPI PUSH2 0x2C9 PUSH2 0x251 JUMP JUMPDEST JUMPDEST PUSH1 0x0 PUSH2 0x2D8 DUP5 DUP3 DUP6 ADD PUSH2 0x29F JUMP JUMPDEST SWAP2 POP POP SWAP3 SWAP2 POP POP JUMP JUMPDEST PUSH1 0x0 PUSH4 0xFFFFFFFF DUP3 AND SWAP1 POP SWAP2 SWAP1 POP JUMP JUMPDEST PUSH2 0x2FA DUP2 PUSH2 0x2E1 JUMP JUMPDEST DUP3 MSTORE POP POP JUMP JUMPDEST PUSH1 0x0 PUSH1 0x20 DUP3 ADD SWAP1 POP PUSH2 0x315 PUSH1 0x0 DUP4 ADD DUP5 PUSH2 0x2F1 JUMP JUMPDEST SWAP3 SWAP2 POP POP JUMP JUMPDEST PUSH1 0x0 DUP2 ISZERO ISZERO SWAP1 POP SWAP2 SWAP1 POP JUMP JUMPDEST PUSH2 0x330 DUP2 PUSH2 0x31B JUMP JUMPDEST DUP2 EQ PUSH2 0x33B JUMPI PUSH1 0x0 DUP1 REVERT JUMPDEST POP JUMP JUMPDEST PUSH1 0x0 DUP2 CALLDATALOAD SWAP1 POP PUSH2 0x34D DUP2 PUSH2 0x327 JUMP JUMPDEST SWAP3 SWAP2 POP POP JUMP JUMPDEST PUSH1 0x0 DUP1 PUSH1 0x0 DUP1 PUSH1 0x0 DUP1 PUSH1 0xC0 DUP8 DUP10 SUB SLT ISZERO PUSH2 0x370 JUMPI PUSH2 0x36F PUSH2 0x251 JUMP JUMPDEST JUMPDEST PUSH1 0x0 PUSH2 0x37E DUP10 DUP3 DUP11 ADD PUSH2 0x29F JUMP JUMPDEST SWAP7 POP POP PUSH1 0x20 PUSH2 0x38F DUP10 DUP3 DUP11 ADD PUSH2 0x33E JUMP JUMPDEST SWAP6 POP POP PUSH1 0x40 PUSH2 0x3A0 DUP10 DUP3 DUP11 ADD PUSH2 0x33E JUMP JUMPDEST SWAP5 POP POP PUSH1 0x60 PUSH2 0x3B1 DUP10 DUP3 DUP11 ADD PUSH2 0x33E JUMP JUMPDEST SWAP4 POP POP PUSH1 0x80 PUSH2 0x3C2 DUP10 DUP3 DUP11 ADD PUSH2 0x33E JUMP JUMPDEST SWAP3 POP POP PUSH1 0xA0 PUSH2 0x3D3 DUP10 DUP3 DUP11 ADD PUSH2 0x33E JUMP JUMPDEST SWAP2 POP POP SWAP3 SWAP6 POP SWAP3 SWAP6 POP SWAP3 SWAP6 JUMP JUMPDEST PUSH1 0x0 DUP3 DUP3 MSTORE PUSH1 0x20 DUP3 ADD SWAP1 POP SWAP3 SWAP2 POP POP JUMP JUMPDEST PUSH32 0x4F6E6C79207468652061646D696E2063616E2063616C6C20746869732066756E PUSH1 0x0 DUP3 ADD MSTORE PUSH32 0x6374696F6E000000000000000000000000000000000000000000000000000000 PUSH1 0x20 DUP3 ADD MSTORE POP JUMP JUMPDEST PUSH1 0x0 PUSH2 0x44D PUSH1 0x25 DUP4 PUSH2 0x3E0 JUMP JUMPDEST SWAP2 POP PUSH2 0x458 DUP3 PUSH2 0x3F1 JUMP JUMPDEST PUSH1 0x40 DUP3 ADD SWAP1 POP SWAP2 SWAP1 POP JUMP JUMPDEST PUSH1 0x0 PUSH1 0x20 DUP3 ADD SWAP1 POP DUP2 DUP2 SUB PUSH1 0x0 DUP4 ADD MSTORE PUSH2 0x47C DUP2 PUSH2 0x440 JUMP JUMPDEST SWAP1 POP SWAP2 SWAP1 POP JUMP INVALID LOG2 PUSH5 0x6970667358 0x22 SLT KECCAK256 DIV 0x4F 0x2F MLOAD 0xCE 0xAF LOG3 0xC9 0x4E PUSH14 0xDB8BE8BB09FC85FCED0E232A41F GASPRICE 0xD8 0x1F 0xD PUSH8 0x2BA71064736F6C63 NUMBER STOP ADDMOD SLT STOP CALLER "
				},
				"gasEstimates": {
					"creation": {
						"codeDepositCost": "241800",
						"executionCost": "24547",
						"totalCost": "266347"
					},
					"external": {
						"allowedTxTypes(address)": "2861",
						"setPermissions(address,bool,bool,bool,bool,bool)": "infinite"
					},
					"internal": {
						"approve(address,uint32)": "24376"
					}
				},
				"methodIdentifiers": {
					"allowedTxTypes(address)": "e1751221",
					"setPermissions(address,bool,bool,bool,bool,bool)": "f1416030"
				}
			},
			"storageLayout": {
				"storage": [
					{
						"astId": 24,
						"contract": "TxPermissions.sol:TransactionPermissions",
						"label": "approvedAddresses",
						"offset": 0,
						"slot": "0",
						"type": "t_mapping(t_address,t_uint32)"
					},
					{
						"astId": 26,
						"contract": "TxPermissions.sol:TransactionPermissions",
						"label": "deployer",
						"offset": 0,
						"slot": "1",
						"type": "t_address"
					}
				],
				"types": {
					"t_address": {
						"encoding": "inplace",
						"label": "address",
						"numberOfBytes": "20"
					},
					"t_mapping(t_address,t_uint32)": {
						"encoding": "mapping",
						"key": "t_address",
						"label": "mapping(address => uint32)",
						"numberOfBytes": "32",
						"value": "t_uint32"
					},
					"t_uint32": {
						"encoding": "inplace",
						"label": "uint32",
						"numberOfBytes": "4"
					}
				}
			},
			"userdoc": {
				"kind": "user",
				"methods": {},
				"version": 1
			}
		}
	}
}