{
	"data": {
		"bytecode": {
			"linkReferences": {},
			"object": "60806040523480156200001157600080fd5b506040516200105f3803806200105f83398181016040528101906200003791906200034e565b336000806101000a81548173ffffffffffffffffffffffffffffffffffffffff021916908373ffffffffffffffffffffffffffffffffffffffff16021790555083600190816200008891906200067e565b5082600290816200009a91906200067e565b508160038190555084600460006101000a81548173ffffffffffffffffffffffffffffffffffffffff021916908373ffffffffffffffffffffffffffffffffffffffff1602179055508060059081620000f491906200067e565b506001600660006101000a81548160ff021916908315150217905550505050505062000765565b6000604051905090565b600080fd5b600080fd5b600073ffffffffffffffffffffffffffffffffffffffff82169050919050565b60006200015c826200012f565b9050919050565b6200016e816200014f565b81146200017a57600080fd5b50565b6000815190506200018e8162000163565b92915050565b600080fd5b600080fd5b6000601f19601f8301169050919050565b7f4e487b7100000000000000000000000000000000000000000000000000000000600052604160045260246000fd5b620001e9826200019e565b810181811067ffffffffffffffff821117156200020b576200020a620001af565b5b80604052505050565b6000620002206200011b565b90506200022e8282620001de565b919050565b600067ffffffffffffffff821115620002515762000250620001af565b5b6200025c826200019e565b9050602081019050919050565b60005b83811015620002895780820151818401526020810190506200026c565b60008484015250505050565b6000620002ac620002a68462000233565b62000214565b905082815260208101848484011115620002cb57620002ca62000199565b5b620002d884828562000269565b509392505050565b600082601f830112620002f857620002f762000194565b5b81516200030a84826020860162000295565b91505092915050565b6000819050919050565b620003288162000313565b81146200033457600080fd5b50565b60008151905062000348816200031d565b92915050565b600080600080600060a086880312156200036d576200036c62000125565b5b60006200037d888289016200017d565b955050602086015167ffffffffffffffff811115620003a157620003a06200012a565b5b620003af88828901620002e0565b945050604086015167ffffffffffffffff811115620003d357620003d26200012a565b5b620003e188828901620002e0565b9350506060620003f48882890162000337565b925050608086015167ffffffffffffffff8111156200041857620004176200012a565b5b6200042688828901620002e0565b9150509295509295909350565b600081519050919050565b7f4e487b7100000000000000000000000000000000000000000000000000000000600052602260045260246000fd5b600060028204905060018216806200048657607f821691505b6020821081036200049c576200049b6200043e565b5b50919050565b60008190508160005260206000209050919050565b60006020601f8301049050919050565b600082821b905092915050565b600060088302620005067fffffffffffffffffffffffffffffffffffffffffffffffffffffffffffffffff82620004c7565b620005128683620004c7565b95508019841693508086168417925050509392505050565b6000819050919050565b6000819050919050565b60006200055f6200055962000553846200052a565b62000534565b6200052a565b9050919050565b6000819050919050565b6200057b836200053e565b620005936200058a8262000566565b848454620004d4565b825550505050565b600090565b620005aa6200059b565b620005b781848462000570565b505050565b5b81811015620005df57620005d3600082620005a0565b600181019050620005bd565b5050565b601f8211156200062e57620005f881620004a2565b6200060384620004b7565b8101602085101562000613578190505b6200062b6200062285620004b7565b830182620005bc565b50505b505050565b600082821c905092915050565b6000620006536000198460080262000633565b1980831691505092915050565b60006200066e838362000640565b9150826002028217905092915050565b620006898262000433565b67ffffffffffffffff811115620006a557620006a4620001af565b5b620006b182546200046d565b620006be828285620005e3565b600060209050601f831160018114620006f65760008415620006e1578287015190505b620006ed858262000660565b8655506200075d565b601f1984166200070686620004a2565b60005b82811015620007305784890151825560018201915060208501945060208101905062000709565b868310156200075057848901516200074c601f89168262000640565b8355505b6001600288020188555050505b505050505050565b6108ea80620007756000396000f3fe608060405234801561001057600080fd5b50600436106100935760003560e01c806363ffab311161006657806363ffab31146101225780636f4a5a35146101405780638da5cb5b1461015e5780639cda52291461017c578063f2fde38b1461019a57610093565b806301ffc9a71461009857806322f3e2d4146100c857806329dda763146100e65780632b20e39714610104575b600080fd5b6100b260048036038101906100ad91906105c4565b6101b6565b6040516100bf919061060c565b60405180910390f35b6100d0610288565b6040516100dd919061060c565b60405180910390f35b6100ee61029b565b6040516100fb91906106b7565b60405180910390f35b61010c610329565b604051610119919061071a565b60405180910390f35b61012a61034d565b604051610137919061074e565b60405180910390f35b610148610353565b60405161015591906106b7565b60405180910390f35b6101666103e1565b604051610173919061071a565b60405180910390f35b610184610407565b60405161019191906106b7565b60405180910390f35b6101b460048036038101906101af9190610795565b610495565b005b60007fcec6e47a000000000000000000000000000000000000000000000000000000007bffffffffffffffffffffffffffffffffffffffffffffffffffffffff1916827bffffffffffffffffffffffffffffffffffffffffffffffffffffffff1916148061028157507f01ffc9a7000000000000000000000000000000000000000000000000000000007bffffffffffffffffffffffffffffffffffffffffffffffffffffffff1916827bffffffffffffffffffffffffffffffffffffffffffffffffffffffff1916145b9050919050565b600660009054906101000a900460ff1681565b600280546102a8906107f1565b80601f01602080910402602001604051908101604052809291908181526020018280546102d4906107f1565b80156103215780601f106102f657610100808354040283529160200191610321565b820191906000526020600020905b81548152906001019060200180831161030457829003601f168201915b505050505081565b60008054906101000a900473ffffffffffffffffffffffffffffffffffffffff1681565b60035481565b60018054610360906107f1565b80601f016020809104026020016040519081016040528092919081815260200182805461038c906107f1565b80156103d95780601f106103ae576101008083540402835291602001916103d9565b820191906000526020600020905b8154815290600101906020018083116103bc57829003601f168201915b505050505081565b600460009054906101000a900473ffffffffffffffffffffffffffffffffffffffff1681565b60058054610414906107f1565b80601f0160208091040260200160405190810160405280929190818152602001828054610440906107f1565b801561048d5780601f106104625761010080835404028352916020019161048d565b820191906000526020600020905b81548152906001019060200180831161047057829003601f168201915b505050505081565b60008054906101000a900473ffffffffffffffffffffffffffffffffffffffff1673ffffffffffffffffffffffffffffffffffffffff163373ffffffffffffffffffffffffffffffffffffffff1614610523576040517f08c379a000000000000000000000000000000000000000000000000000000000815260040161051a90610894565b60405180910390fd5b80600460006101000a81548173ffffffffffffffffffffffffffffffffffffffff021916908373ffffffffffffffffffffffffffffffffffffffff16021790555050565b600080fd5b60007fffffffff0000000000000000000000000000000000000000000000000000000082169050919050565b6105a18161056c565b81146105ac57600080fd5b50565b6000813590506105be81610598565b92915050565b6000602082840312156105da576105d9610567565b5b60006105e8848285016105af565b91505092915050565b60008115159050919050565b610606816105f1565b82525050565b600060208201905061062160008301846105fd565b92915050565b600081519050919050565b600082825260208201905092915050565b60005b83811015610661578082015181840152602081019050610646565b60008484015250505050565b6000601f19601f8301169050919050565b600061068982610627565b6106938185610632565b93506106a3818560208601610643565b6106ac8161066d565b840191505092915050565b600060208201905081810360008301526106d1818461067e565b905092915050565b600073ffffffffffffffffffffffffffffffffffffffff82169050919050565b6000610704826106d9565b9050919050565b610714816106f9565b82525050565b600060208201905061072f600083018461070b565b92915050565b6000819050919050565b61074881610735565b82525050565b6000602082019050610763600083018461073f565b92915050565b610772816106f9565b811461077d57600080fd5b50565b60008135905061078f81610769565b92915050565b6000602082840312156107ab576107aa610567565b5b60006107b984828501610780565b91505092915050565b7f4e487b7100000000000000000000000000000000000000000000000000000000600052602260045260246000fd5b6000600282049050600182168061080957607f821691505b60208210810361081c5761081b6107c2565b5b50919050565b7f4f6e6c792074686520646f6d61696e2072656769737472617220636f6e74726160008201527f63742063616e2063616c6c20746869732066756e6374696f6e00000000000000602082015250565b600061087e603983610632565b915061088982610822565b604082019050919050565b600060208201905081810360008301526108ad81610871565b905091905056fea2646970667358221220e3d5870dae2e96e0f8f19189ec0f535d0c42742496b4597160262d88bdae3a5264736f6c63430008120033",
			"opcodes": "PUSH1 0x80 PUSH1 0x40 MSTORE CALLVALUE DUP1 ISZERO PUSH3 0x11 JUMPI PUSH1 0x0 DUP1 REVERT JUMPDEST POP PUSH1 0x40 MLOAD PUSH3 0x105F CODESIZE SUB DUP1 PUSH3 0x105F DUP4 CODECOPY DUP2 DUP2 ADD PUSH1 0x40 MSTORE DUP2 ADD SWAP1 PUSH3 0x37 SWAP2 SWAP1 PUSH3 0x34E JUMP JUMPDEST CALLER PUSH1 0x0 DUP1 PUSH2 0x100 EXP DUP2 SLOAD DUP2 PUSH20 0xFFFFFFFFFFFFFFFFFFFFFFFFFFFFFFFFFFFFFFFF MUL NOT AND SWAP1 DUP4 PUSH20 0xFFFFFFFFFFFFFFFFFFFFFFFFFFFFFFFFFFFFFFFF AND MUL OR SWAP1 SSTORE POP DUP4 PUSH1 0x1 SWAP1 DUP2 PUSH3 0x88 SWAP2 SWAP1 PUSH3 0x67E JUMP JUMPDEST POP DUP3 PUSH1 0x2 SWAP1 DUP2 PUSH3 0x9A SWAP2 SWAP1 PUSH3 0x67E JUMP JUMPDEST POP DUP2 PUSH1 0x3 DUP2 SWAP1 SSTORE POP DUP5 PUSH1 0x4 PUSH1 0x0 PUSH2 0x100 EXP DUP2 SLOAD DUP2 PUSH20 0xFFFFFFFFFFFFFFFFFFFFFFFFFFFFFFFFFFFFFFFF MUL NOT AND SWAP1 DUP4 PUSH20 0xFFFFFFFFFFFFFFFFFFFFFFFFFFFFFFFFFFFFFFFF AND MUL OR SWAP1 SSTORE POP DUP1 PUSH1 0x5 SWAP1 DUP2 PUSH3 0xF4 SWAP2 SWAP1 PUSH3 0x67E JUMP JUMPDEST POP PUSH1 0x1 PUSH1 0x6 PUSH1 0x0 PUSH2 0x100 EXP DUP2 SLOAD DUP2 PUSH1 0xFF MUL NOT AND SWAP1 DUP4 ISZERO ISZERO MUL OR SWAP1 SSTORE POP POP POP POP POP POP PUSH3 0x765 JUMP JUMPDEST PUSH1 0x0 PUSH1 0x40 MLOAD SWAP1 POP SWAP1 JUMP JUMPDEST PUSH1 0x0 DUP1 REVERT JUMPDEST PUSH1 0x0 DUP1 REVERT JUMPDEST PUSH1 0x0 PUSH20 0xFFFFFFFFFFFFFFFFFFFFFFFFFFFFFFFFFFFFFFFF DUP3 AND SWAP1 POP SWAP2 SWAP1 POP JUMP JUMPDEST PUSH1 0x0 PUSH3 0x15C DUP3 PUSH3 0x12F JUMP JUMPDEST SWAP1 POP SWAP2 SWAP1 POP JUMP JUMPDEST PUSH3 0x16E DUP2 PUSH3 0x14F JUMP JUMPDEST DUP2 EQ PUSH3 0x17A JUMPI PUSH1 0x0 DUP1 REVERT JUMPDEST POP JUMP JUMPDEST PUSH1 0x0 DUP2 MLOAD SWAP1 POP PUSH3 0x18E DUP2 PUSH3 0x163 JUMP JUMPDEST SWAP3 SWAP2 POP POP JUMP JUMPDEST PUSH1 0x0 DUP1 REVERT JUMPDEST PUSH1 0x0 DUP1 REVERT JUMPDEST PUSH1 0x0 PUSH1 0x1F NOT PUSH1 0x1F DUP4 ADD AND SWAP1 POP SWAP2 SWAP1 POP JUMP JUMPDEST PUSH32 0x4E487B7100000000000000000000000000000000000000000000000000000000 PUSH1 0x0 MSTORE PUSH1 0x41 PUSH1 0x4 MSTORE PUSH1 0x24 PUSH1 0x0 REVERT JUMPDEST PUSH3 0x1E9 DUP3 PUSH3 0x19E JUMP JUMPDEST DUP2 ADD DUP2 DUP2 LT PUSH8 0xFFFFFFFFFFFFFFFF DUP3 GT OR ISZERO PUSH3 0x20B JUMPI PUSH3 0x20A PUSH3 0x1AF JUMP JUMPDEST JUMPDEST DUP1 PUSH1 0x40 MSTORE POP POP POP JUMP JUMPDEST PUSH1 0x0 PUSH3 0x220 PUSH3 0x11B JUMP JUMPDEST SWAP1 POP PUSH3 0x22E DUP3 DUP3 PUSH3 0x1DE JUMP JUMPDEST SWAP2 SWAP1 POP JUMP JUMPDEST PUSH1 0x0 PUSH8 0xFFFFFFFFFFFFFFFF DUP3 GT ISZERO PUSH3 0x251 JUMPI PUSH3 0x250 PUSH3 0x1AF JUMP JUMPDEST JUMPDEST PUSH3 0x25C DUP3 PUSH3 0x19E JUMP JUMPDEST SWAP1 POP PUSH1 0x20 DUP2 ADD SWAP1 POP SWAP2 SWAP1 POP JUMP JUMPDEST PUSH1 0x0 JUMPDEST DUP4 DUP2 LT ISZERO PUSH3 0x289 JUMPI DUP1 DUP3 ADD MLOAD DUP2 DUP5 ADD MSTORE PUSH1 0x20 DUP2 ADD SWAP1 POP PUSH3 0x26C JUMP JUMPDEST PUSH1 0x0 DUP5 DUP5 ADD MSTORE POP POP POP POP JUMP JUMPDEST PUSH1 0x0 PUSH3 0x2AC PUSH3 0x2A6 DUP5 PUSH3 0x233 JUMP JUMPDEST PUSH3 0x214 JUMP JUMPDEST SWAP1 POP DUP3 DUP2 MSTORE PUSH1 0x20 DUP2 ADD DUP5 DUP5 DUP5 ADD GT ISZERO PUSH3 0x2CB JUMPI PUSH3 0x2CA PUSH3 0x199 JUMP JUMPDEST JUMPDEST PUSH3 0x2D8 DUP5 DUP3 DUP6 PUSH3 0x269 JUMP JUMPDEST POP SWAP4 SWAP3 POP POP POP JUMP JUMPDEST PUSH1 0x0 DUP3 PUSH1 0x1F DUP4 ADD SLT PUSH3 0x2F8 JUMPI PUSH3 0x2F7 PUSH3 0x194 JUMP JUMPDEST JUMPDEST DUP2 MLOAD PUSH3 0x30A DUP5 DUP3 PUSH1 0x20 DUP7 ADD PUSH3 0x295 JUMP JUMPDEST SWAP2 POP POP SWAP3 SWAP2 POP POP JUMP JUMPDEST PUSH1 0x0 DUP2 SWAP1 POP SWAP2 SWAP1 POP JUMP JUMPDEST PUSH3 0x328 DUP2 PUSH3 0x313 JUMP JUMPDEST DUP2 EQ PUSH3 0x334 JUMPI PUSH1 0x0 DUP1 REVERT JUMPDEST POP JUMP JUMPDEST PUSH1 0x0 DUP2 MLOAD SWAP1 POP PUSH3 0x348 DUP2 PUSH3 0x31D JUMP JUMPDEST SWAP3 SWAP2 POP POP JUMP JUMPDEST PUSH1 0x0 DUP1 PUSH1 0x0 DUP1 PUSH1 0x0 PUSH1 0xA0 DUP7 DUP9 SUB SLT ISZERO PUSH3 0x36D JUMPI PUSH3 0x36C PUSH3 0x125 JUMP JUMPDEST JUMPDEST PUSH1 0x0 PUSH3 0x37D DUP9 DUP3 DUP10 ADD PUSH3 0x17D JUMP JUMPDEST SWAP6 POP POP PUSH1 0x20 DUP7 ADD MLOAD PUSH8 0xFFFFFFFFFFFFFFFF DUP2 GT ISZERO PUSH3 0x3A1 JUMPI PUSH3 0x3A0 PUSH3 0x12A JUMP JUMPDEST JUMPDEST PUSH3 0x3AF DUP9 DUP3 DUP10 ADD PUSH3 0x2E0 JUMP JUMPDEST SWAP5 POP POP PUSH1 0x40 DUP7 ADD MLOAD PUSH8 0xFFFFFFFFFFFFFFFF DUP2 GT ISZERO PUSH3 0x3D3 JUMPI PUSH3 0x3D2 PUSH3 0x12A JUMP JUMPDEST JUMPDEST PUSH3 0x3E1 DUP9 DUP3 DUP10 ADD PUSH3 0x2E0 JUMP JUMPDEST SWAP4 POP POP PUSH1 0x60 PUSH3 0x3F4 DUP9 DUP3 DUP10 ADD PUSH3 0x337 JUMP JUMPDEST SWAP3 POP POP PUSH1 0x80 DUP7 ADD MLOAD PUSH8 0xFFFFFFFFFFFFFFFF DUP2 GT ISZERO PUSH3 0x418 JUMPI PUSH3 0x417 PUSH3 0x12A JUMP JUMPDEST JUMPDEST PUSH3 0x426 DUP9 DUP3 DUP10 ADD PUSH3 0x2E0 JUMP JUMPDEST SWAP2 POP POP SWAP3 SWAP6 POP SWAP3 SWAP6 SWAP1 SWAP4 POP JUMP JUMPDEST PUSH1 0x0 DUP2 MLOAD SWAP1 POP SWAP2 SWAP1 POP JUMP JUMPDEST PUSH32 0x4E487B7100000000000000000000000000000000000000000000000000000000 PUSH1 0x0 MSTORE PUSH1 0x22 PUSH1 0x4 MSTORE PUSH1 0x24 PUSH1 0x0 REVERT JUMPDEST PUSH1 0x0 PUSH1 0x2 DUP3 DIV SWAP1 POP PUSH1 0x1 DUP3 AND DUP1 PUSH3 0x486 JUMPI PUSH1 0x7F DUP3 AND SWAP2 POP JUMPDEST PUSH1 0x20 DUP3 LT DUP2 SUB PUSH3 0x49C JUMPI PUSH3 0x49B PUSH3 0x43E JUMP JUMPDEST JUMPDEST POP SWAP2 SWAP1 POP JUMP JUMPDEST PUSH1 0x0 DUP2 SWAP1 POP DUP2 PUSH1 0x0 MSTORE PUSH1 0x20 PUSH1 0x0 KECCAK256 SWAP1 POP SWAP2 SWAP1 POP JUMP JUMPDEST PUSH1 0x0 PUSH1 0x20 PUSH1 0x1F DUP4 ADD DIV SWAP1 POP SWAP2 SWAP1 POP JUMP JUMPDEST PUSH1 0x0 DUP3 DUP3 SHL SWAP1 POP SWAP3 SWAP2 POP POP JUMP JUMPDEST PUSH1 0x0 PUSH1 0x8 DUP4 MUL PUSH3 0x506 PUSH32 0xFFFFFFFFFFFFFFFFFFFFFFFFFFFFFFFFFFFFFFFFFFFFFFFFFFFFFFFFFFFFFFFF DUP3 PUSH3 0x4C7 JUMP JUMPDEST PUSH3 0x512 DUP7 DUP4 PUSH3 0x4C7 JUMP JUMPDEST SWAP6 POP DUP1 NOT DUP5 AND SWAP4 POP DUP1 DUP7 AND DUP5 OR SWAP3 POP POP POP SWAP4 SWAP3 POP POP POP JUMP JUMPDEST PUSH1 0x0 DUP2 SWAP1 POP SWAP2 SWAP1 POP JUMP JUMPDEST PUSH1 0x0 DUP2 SWAP1 POP SWAP2 SWAP1 POP JUMP JUMPDEST PUSH1 0x0 PUSH3 0x55F PUSH3 0x559 PUSH3 0x553 DUP5 PUSH3 0x52A JUMP JUMPDEST PUSH3 0x534 JUMP JUMPDEST PUSH3 0x52A JUMP JUMPDEST SWAP1 POP SWAP2 SWAP1 POP JUMP JUMPDEST PUSH1 0x0 DUP2 SWAP1 POP SWAP2 SWAP1 POP JUMP JUMPDEST PUSH3 0x57B DUP4 PUSH3 0x53E JUMP JUMPDEST PUSH3 0x593 PUSH3 0x58A DUP3 PUSH3 0x566 JUMP JUMPDEST DUP5 DUP5 SLOAD PUSH3 0x4D4 JUMP JUMPDEST DUP3 SSTORE POP POP POP POP JUMP JUMPDEST PUSH1 0x0 SWAP1 JUMP JUMPDEST PUSH3 0x5AA PUSH3 0x59B JUMP JUMPDEST PUSH3 0x5B7 DUP2 DUP5 DUP5 PUSH3 0x570 JUMP JUMPDEST POP POP POP JUMP JUMPDEST JUMPDEST DUP2 DUP2 LT ISZERO PUSH3 0x5DF JUMPI PUSH3 0x5D3 PUSH1 0x0 DUP3 PUSH3 0x5A0 JUMP JUMPDEST PUSH1 0x1 DUP2 ADD SWAP1 POP PUSH3 0x5BD JUMP JUMPDEST POP POP JUMP JUMPDEST PUSH1 0x1F DUP3 GT ISZERO PUSH3 0x62E JUMPI PUSH3 0x5F8 DUP2 PUSH3 0x4A2 JUMP JUMPDEST PUSH3 0x603 DUP5 PUSH3 0x4B7 JUMP JUMPDEST DUP2 ADD PUSH1 0x20 DUP6 LT ISZERO PUSH3 0x613 JUMPI DUP2 SWAP1 POP JUMPDEST PUSH3 0x62B PUSH3 0x622 DUP6 PUSH3 0x4B7 JUMP JUMPDEST DUP4 ADD DUP3 PUSH3 0x5BC JUMP JUMPDEST POP POP JUMPDEST POP POP POP JUMP JUMPDEST PUSH1 0x0 DUP3 DUP3 SHR SWAP1 POP SWAP3 SWAP2 POP POP JUMP JUMPDEST PUSH1 0x0 PUSH3 0x653 PUSH1 0x0 NOT DUP5 PUSH1 0x8 MUL PUSH3 0x633 JUMP JUMPDEST NOT DUP1 DUP4 AND SWAP2 POP POP SWAP3 SWAP2 POP POP JUMP JUMPDEST PUSH1 0x0 PUSH3 0x66E DUP4 DUP4 PUSH3 0x640 JUMP JUMPDEST SWAP2 POP DUP3 PUSH1 0x2 MUL DUP3 OR SWAP1 POP SWAP3 SWAP2 POP POP JUMP JUMPDEST PUSH3 0x689 DUP3 PUSH3 0x433 JUMP JUMPDEST PUSH8 0xFFFFFFFFFFFFFFFF DUP2 GT ISZERO PUSH3 0x6A5 JUMPI PUSH3 0x6A4 PUSH3 0x1AF JUMP JUMPDEST JUMPDEST PUSH3 0x6B1 DUP3 SLOAD PUSH3 0x46D JUMP JUMPDEST PUSH3 0x6BE DUP3 DUP3 DUP6 PUSH3 0x5E3 JUMP JUMPDEST PUSH1 0x0 PUSH1 0x20 SWAP1 POP PUSH1 0x1F DUP4 GT PUSH1 0x1 DUP2 EQ PUSH3 0x6F6 JUMPI PUSH1 0x0 DUP5 ISZERO PUSH3 0x6E1 JUMPI DUP3 DUP8 ADD MLOAD SWAP1 POP JUMPDEST PUSH3 0x6ED DUP6 DUP3 PUSH3 0x660 JUMP JUMPDEST DUP7 SSTORE POP PUSH3 0x75D JUMP JUMPDEST PUSH1 0x1F NOT DUP5 AND PUSH3 0x706 DUP7 PUSH3 0x4A2 JUMP JUMPDEST PUSH1 0x0 JUMPDEST DUP3 DUP2 LT ISZERO PUSH3 0x730 JUMPI DUP5 DUP10 ADD MLOAD DUP3 SSTORE PUSH1 0x1 DUP3 ADD SWAP2 POP PUSH1 0x20 DUP6 ADD SWAP5 POP PUSH1 0x20 DUP2 ADD SWAP1 POP PUSH3 0x709 JUMP JUMPDEST DUP7 DUP4 LT ISZERO PUSH3 0x750 JUMPI DUP5 DUP10 ADD MLOAD PUSH3 0x74C PUSH1 0x1F DUP10 AND DUP3 PUSH3 0x640 JUMP JUMPDEST DUP4 SSTORE POP JUMPDEST PUSH1 0x1 PUSH1 0x2 DUP9 MUL ADD DUP9 SSTORE POP POP POP JUMPDEST POP POP POP POP POP POP JUMP JUMPDEST PUSH2 0x8EA DUP1 PUSH3 0x775 PUSH1 0x0 CODECOPY PUSH1 0x0 RETURN INVALID PUSH1 0x80 PUSH1 0x40 MSTORE CALLVALUE DUP1 ISZERO PUSH2 0x10 JUMPI PUSH1 0x0 DUP1 REVERT JUMPDEST POP PUSH1 0x4 CALLDATASIZE LT PUSH2 0x93 JUMPI PUSH1 0x0 CALLDATALOAD PUSH1 0xE0 SHR DUP1 PUSH4 0x63FFAB31 GT PUSH2 0x66 JUMPI DUP1 PUSH4 0x63FFAB31 EQ PUSH2 0x122 JUMPI DUP1 PUSH4 0x6F4A5A35 EQ PUSH2 0x140 JUMPI DUP1 PUSH4 0x8DA5CB5B EQ PUSH2 0x15E JUMPI DUP1 PUSH4 0x9CDA5229 EQ PUSH2 0x17C JUMPI DUP1 PUSH4 0xF2FDE38B EQ PUSH2 0x19A JUMPI PUSH2 0x93 JUMP JUMPDEST DUP1 PUSH4 0x1FFC9A7 EQ PUSH2 0x98 JUMPI DUP1 PUSH4 0x22F3E2D4 EQ PUSH2 0xC8 JUMPI DUP1 PUSH4 0x29DDA763 EQ PUSH2 0xE6 JUMPI DUP1 PUSH4 0x2B20E397 EQ PUSH2 0x104 JUMPI JUMPDEST PUSH1 0x0 DUP1 REVERT JUMPDEST PUSH2 0xB2 PUSH1 0x4 DUP1 CALLDATASIZE SUB DUP2 ADD SWAP1 PUSH2 0xAD SWAP2 SWAP1 PUSH2 0x5C4 JUMP JUMPDEST PUSH2 0x1B6 JUMP JUMPDEST PUSH1 0x40 MLOAD PUSH2 0xBF SWAP2 SWAP1 PUSH2 0x60C JUMP JUMPDEST PUSH1 0x40 MLOAD DUP1 SWAP2 SUB SWAP1 RETURN JUMPDEST PUSH2 0xD0 PUSH2 0x288 JUMP JUMPDEST PUSH1 0x40 MLOAD PUSH2 0xDD SWAP2 SWAP1 PUSH2 0x60C JUMP JUMPDEST PUSH1 0x40 MLOAD DUP1 SWAP2 SUB SWAP1 RETURN JUMPDEST PUSH2 0xEE PUSH2 0x29B JUMP JUMPDEST PUSH1 0x40 MLOAD PUSH2 0xFB SWAP2 SWAP1 PUSH2 0x6B7 JUMP JUMPDEST PUSH1 0x40 MLOAD DUP1 SWAP2 SUB SWAP1 RETURN JUMPDEST PUSH2 0x10C PUSH2 0x329 JUMP JUMPDEST PUSH1 0x40 MLOAD PUSH2 0x119 SWAP2 SWAP1 PUSH2 0x71A JUMP JUMPDEST PUSH1 0x40 MLOAD DUP1 SWAP2 SUB SWAP1 RETURN JUMPDEST PUSH2 0x12A PUSH2 0x34D JUMP JUMPDEST PUSH1 0x40 MLOAD PUSH2 0x137 SWAP2 SWAP1 PUSH2 0x74E JUMP JUMPDEST PUSH1 0x40 MLOAD DUP1 SWAP2 SUB SWAP1 RETURN JUMPDEST PUSH2 0x148 PUSH2 0x353 JUMP JUMPDEST PUSH1 0x40 MLOAD PUSH2 0x155 SWAP2 SWAP1 PUSH2 0x6B7 JUMP JUMPDEST PUSH1 0x40 MLOAD DUP1 SWAP2 SUB SWAP1 RETURN JUMPDEST PUSH2 0x166 PUSH2 0x3E1 JUMP JUMPDEST PUSH1 0x40 MLOAD PUSH2 0x173 SWAP2 SWAP1 PUSH2 0x71A JUMP JUMPDEST PUSH1 0x40 MLOAD DUP1 SWAP2 SUB SWAP1 RETURN JUMPDEST PUSH2 0x184 PUSH2 0x407 JUMP JUMPDEST PUSH1 0x40 MLOAD PUSH2 0x191 SWAP2 SWAP1 PUSH2 0x6B7 JUMP JUMPDEST PUSH1 0x40 MLOAD DUP1 SWAP2 SUB SWAP1 RETURN JUMPDEST PUSH2 0x1B4 PUSH1 0x4 DUP1 CALLDATASIZE SUB DUP2 ADD SWAP1 PUSH2 0x1AF SWAP2 SWAP1 PUSH2 0x795 JUMP JUMPDEST PUSH2 0x495 JUMP JUMPDEST STOP JUMPDEST PUSH1 0x0 PUSH32 0xCEC6E47A00000000000000000000000000000000000000000000000000000000 PUSH28 0xFFFFFFFFFFFFFFFFFFFFFFFFFFFFFFFFFFFFFFFFFFFFFFFFFFFFFFFF NOT AND DUP3 PUSH28 0xFFFFFFFFFFFFFFFFFFFFFFFFFFFFFFFFFFFFFFFFFFFFFFFFFFFFFFFF NOT AND EQ DUP1 PUSH2 0x281 JUMPI POP PUSH32 0x1FFC9A700000000000000000000000000000000000000000000000000000000 PUSH28 0xFFFFFFFFFFFFFFFFFFFFFFFFFFFFFFFFFFFFFFFFFFFFFFFFFFFFFFFF NOT AND DUP3 PUSH28 0xFFFFFFFFFFFFFFFFFFFFFFFFFFFFFFFFFFFFFFFFFFFFFFFFFFFFFFFF NOT AND EQ JUMPDEST SWAP1 POP SWAP2 SWAP1 POP JUMP JUMPDEST PUSH1 0x6 PUSH1 0x0 SWAP1 SLOAD SWAP1 PUSH2 0x100 EXP SWAP1 DIV PUSH1 0xFF AND DUP2 JUMP JUMPDEST PUSH1 0x2 DUP1 SLOAD PUSH2 0x2A8 SWAP1 PUSH2 0x7F1 JUMP JUMPDEST DUP1 PUSH1 0x1F ADD PUSH1 0x20 DUP1 SWAP2 DIV MUL PUSH1 0x20 ADD PUSH1 0x40 MLOAD SWAP1 DUP2 ADD PUSH1 0x40 MSTORE DUP1 SWAP3 SWAP2 SWAP1 DUP2 DUP2 MSTORE PUSH1 0x20 ADD DUP3 DUP1 SLOAD PUSH2 0x2D4 SWAP1 PUSH2 0x7F1 JUMP JUMPDEST DUP1 ISZERO PUSH2 0x321 JUMPI DUP1 PUSH1 0x1F LT PUSH2 0x2F6 JUMPI PUSH2 0x100 DUP1 DUP4 SLOAD DIV MUL DUP4 MSTORE SWAP2 PUSH1 0x20 ADD SWAP2 PUSH2 0x321 JUMP JUMPDEST DUP3 ADD SWAP2 SWAP1 PUSH1 0x0 MSTORE PUSH1 0x20 PUSH1 0x0 KECCAK256 SWAP1 JUMPDEST DUP2 SLOAD DUP2 MSTORE SWAP1 PUSH1 0x1 ADD SWAP1 PUSH1 0x20 ADD DUP1 DUP4 GT PUSH2 0x304 JUMPI DUP3 SWAP1 SUB PUSH1 0x1F AND DUP3 ADD SWAP2 JUMPDEST POP POP POP POP POP DUP2 JUMP JUMPDEST PUSH1 0x0 DUP1 SLOAD SWAP1 PUSH2 0x100 EXP SWAP1 DIV PUSH20 0xFFFFFFFFFFFFFFFFFFFFFFFFFFFFFFFFFFFFFFFF AND DUP2 JUMP JUMPDEST PUSH1 0x3 SLOAD DUP2 JUMP JUMPDEST PUSH1 0x1 DUP1 SLOAD PUSH2 0x360 SWAP1 PUSH2 0x7F1 JUMP JUMPDEST DUP1 PUSH1 0x1F ADD PUSH1 0x20 DUP1 SWAP2 DIV MUL PUSH1 0x20 ADD PUSH1 0x40 MLOAD SWAP1 DUP2 ADD PUSH1 0x40 MSTORE DUP1 SWAP3 SWAP2 SWAP1 DUP2 DUP2 MSTORE PUSH1 0x20 ADD DUP3 DUP1 SLOAD PUSH2 0x38C SWAP1 PUSH2 0x7F1 JUMP JUMPDEST DUP1 ISZERO PUSH2 0x3D9 JUMPI DUP1 PUSH1 0x1F LT PUSH2 0x3AE JUMPI PUSH2 0x100 DUP1 DUP4 SLOAD DIV MUL DUP4 MSTORE SWAP2 PUSH1 0x20 ADD SWAP2 PUSH2 0x3D9 JUMP JUMPDEST DUP3 ADD SWAP2 SWAP1 PUSH1 0x0 MSTORE PUSH1 0x20 PUSH1 0x0 KECCAK256 SWAP1 JUMPDEST DUP2 SLOAD DUP2 MSTORE SWAP1 PUSH1 0x1 ADD SWAP1 PUSH1 0x20 ADD DUP1 DUP4 GT PUSH2 0x3BC JUMPI DUP3 SWAP1 SUB PUSH1 0x1F AND DUP3 ADD SWAP2 JUMPDEST POP POP POP POP POP DUP2 JUMP JUMPDEST PUSH1 0x4 PUSH1 0x0 SWAP1 SLOAD SWAP1 PUSH2 0x100 EXP SWAP1 DIV PUSH20 0xFFFFFFFFFFFFFFFFFFFFFFFFFFFFFFFFFFFFFFFF AND DUP2 JUMP JUMPDEST PUSH1 0x5 DUP1 SLOAD PUSH2 0x414 SWAP1 PUSH2 0x7F1 JUMP JUMPDEST DUP1 PUSH1 0x1F ADD PUSH1 0x20 DUP1 SWAP2 DIV MUL PUSH1 0x20 ADD PUSH1 0x40 MLOAD SWAP1 DUP2 ADD PUSH1 0x40 MSTORE DUP1 SWAP3 SWAP2 SWAP1 DUP2 DUP2 MSTORE PUSH1 0x20 ADD DUP3 DUP1 SLOAD PUSH2 0x440 SWAP1 PUSH2 0x7F1 JUMP JUMPDEST DUP1 ISZERO PUSH2 0x48D JUMPI DUP1 PUSH1 0x1F LT PUSH2 0x462 JUMPI PUSH2 0x100 DUP1 DUP4 SLOAD DIV MUL DUP4 MSTORE SWAP2 PUSH1 0x20 ADD SWAP2 PUSH2 0x48D JUMP JUMPDEST DUP3 ADD SWAP2 SWAP1 PUSH1 0x0 MSTORE PUSH1 0x20 PUSH1 0x0 KECCAK256 SWAP1 JUMPDEST DUP2 SLOAD DUP2 MSTORE SWAP1 PUSH1 0x1 ADD SWAP1 PUSH1 0x20 ADD DUP1 DUP4 GT PUSH2 0x470 JUMPI DUP3 SWAP1 SUB PUSH1 0x1F AND DUP3 ADD SWAP2 JUMPDEST POP POP POP POP POP DUP2 JUMP JUMPDEST PUSH1 0x0 DUP1 SLOAD SWAP1 PUSH2 0x100 EXP SWAP1 DIV PUSH20 0xFFFFFFFFFFFFFFFFFFFFFFFFFFFFFFFFFFFFFFFF AND PUSH20 0xFFFFFFFFFFFFFFFFFFFFFFFFFFFFFFFFFFFFFFFF AND CALLER PUSH20 0xFFFFFFFFFFFFFFFFFFFFFFFFFFFFFFFFFFFFFFFF AND EQ PUSH2 0x523 JUMPI PUSH1 0x40 MLOAD PUSH32 0x8C379A000000000000000000000000000000000000000000000000000000000 DUP2 MSTORE PUSH1 0x4 ADD PUSH2 0x51A SWAP1 PUSH2 0x894 JUMP JUMPDEST PUSH1 0x40 MLOAD DUP1 SWAP2 SUB SWAP1 REVERT JUMPDEST DUP1 PUSH1 0x4 PUSH1 0x0 PUSH2 0x100 EXP DUP2 SLOAD DUP2 PUSH20 0xFFFFFFFFFFFFFFFFFFFFFFFFFFFFFFFFFFFFFFFF MUL NOT AND SWAP1 DUP4 PUSH20 0xFFFFFFFFFFFFFFFFFFFFFFFFFFFFFFFFFFFFFFFF AND MUL OR SWAP1 SSTORE POP POP JUMP JUMPDEST PUSH1 0x0 DUP1 REVERT JUMPDEST PUSH1 0x0 PUSH32 0xFFFFFFFF00000000000000000000000000000000000000000000000000000000 DUP3 AND SWAP1 POP SWAP2 SWAP1 POP JUMP JUMPDEST PUSH2 0x5A1 DUP2 PUSH2 0x56C JUMP JUMPDEST DUP2 EQ PUSH2 0x5AC JUMPI PUSH1 0x0 DUP1 REVERT JUMPDEST POP JUMP JUMPDEST PUSH1 0x0 DUP2 CALLDATALOAD SWAP1 POP PUSH2 0x5BE DUP2 PUSH2 0x598 JUMP JUMPDEST SWAP3 SWAP2 POP POP JUMP JUMPDEST PUSH1 0x0 PUSH1 0x20 DUP3 DUP5 SUB SLT ISZERO PUSH2 0x5DA JUMPI PUSH2 0x5D9 PUSH2 0x567 JUMP JUMPDEST JUMPDEST PUSH1 0x0 PUSH2 0x5E8 DUP5 DUP3 DUP6 ADD PUSH2 0x5AF JUMP JUMPDEST SWAP2 POP POP SWAP3 SWAP2 POP POP JUMP JUMPDEST PUSH1 0x0 DUP2 ISZERO ISZERO SWAP1 POP SWAP2 SWAP1 POP JUMP JUMPDEST PUSH2 0x606 DUP2 PUSH2 0x5F1 JUMP JUMPDEST DUP3 MSTORE POP POP JUMP JUMPDEST PUSH1 0x0 PUSH1 0x20 DUP3 ADD SWAP1 POP PUSH2 0x621 PUSH1 0x0 DUP4 ADD DUP5 PUSH2 0x5FD JUMP JUMPDEST SWAP3 SWAP2 POP POP JUMP JUMPDEST PUSH1 0x0 DUP2 MLOAD SWAP1 POP SWAP2 SWAP1 POP JUMP JUMPDEST PUSH1 0x0 DUP3 DUP3 MSTORE PUSH1 0x20 DUP3 ADD SWAP1 POP SWAP3 SWAP2 POP POP JUMP JUMPDEST PUSH1 0x0 JUMPDEST DUP4 DUP2 LT ISZERO PUSH2 0x661 JUMPI DUP1 DUP3 ADD MLOAD DUP2 DUP5 ADD MSTORE PUSH1 0x20 DUP2 ADD SWAP1 POP PUSH2 0x646 JUMP JUMPDEST PUSH1 0x0 DUP5 DUP5 ADD MSTORE POP POP POP POP JUMP JUMPDEST PUSH1 0x0 PUSH1 0x1F NOT PUSH1 0x1F DUP4 ADD AND SWAP1 POP SWAP2 SWAP1 POP JUMP JUMPDEST PUSH1 0x0 PUSH2 0x689 DUP3 PUSH2 0x627 JUMP JUMPDEST PUSH2 0x693 DUP2 DUP6 PUSH2 0x632 JUMP JUMPDEST SWAP4 POP PUSH2 0x6A3 DUP2 DUP6 PUSH1 0x20 DUP7 ADD PUSH2 0x643 JUMP JUMPDEST PUSH2 0x6AC DUP2 PUSH2 0x66D JUMP JUMPDEST DUP5 ADD SWAP2 POP POP SWAP3 SWAP2 POP POP JUMP JUMPDEST PUSH1 0x0 PUSH1 0x20 DUP3 ADD SWAP1 POP DUP2 DUP2 SUB PUSH1 0x0 DUP4 ADD MSTORE PUSH2 0x6D1 DUP2 DUP5 PUSH2 0x67E JUMP JUMPDEST SWAP1 POP SWAP3 SWAP2 POP POP JUMP JUMPDEST PUSH1 0x0 PUSH20 0xFFFFFFFFFFFFFFFFFFFFFFFFFFFFFFFFFFFFFFFF DUP3 AND SWAP1 POP SWAP2 SWAP1 POP JUMP JUMPDEST PUSH1 0x0 PUSH2 0x704 DUP3 PUSH2 0x6D9 JUMP JUMPDEST SWAP1 POP SWAP2 SWAP1 POP JUMP JUMPDEST PUSH2 0x714 DUP2 PUSH2 0x6F9 JUMP JUMPDEST DUP3 MSTORE POP POP JUMP JUMPDEST PUSH1 0x0 PUSH1 0x20 DUP3 ADD SWAP1 POP PUSH2 0x72F PUSH1 0x0 DUP4 ADD DUP5 PUSH2 0x70B JUMP JUMPDEST SWAP3 SWAP2 POP POP JUMP JUMPDEST PUSH1 0x0 DUP2 SWAP1 POP SWAP2 SWAP1 POP JUMP JUMPDEST PUSH2 0x748 DUP2 PUSH2 0x735 JUMP JUMPDEST DUP3 MSTORE POP POP JUMP JUMPDEST PUSH1 0x0 PUSH1 0x20 DUP3 ADD SWAP1 POP PUSH2 0x763 PUSH1 0x0 DUP4 ADD DUP5 PUSH2 0x73F JUMP JUMPDEST SWAP3 SWAP2 POP POP JUMP JUMPDEST PUSH2 0x772 DUP2 PUSH2 0x6F9 JUMP JUMPDEST DUP2 EQ PUSH2 0x77D JUMPI PUSH1 0x0 DUP1 REVERT JUMPDEST POP JUMP JUMPDEST PUSH1 0x0 DUP2 CALLDATALOAD SWAP1 POP PUSH2 0x78F DUP2 PUSH2 0x769 JUMP JUMPDEST SWAP3 SWAP2 POP POP JUMP JUMPDEST PUSH1 0x0 PUSH1 0x20 DUP3 DUP5 SUB SLT ISZERO PUSH2 0x7AB JUMPI PUSH2 0x7AA PUSH2 0x567 JUMP JUMPDEST JUMPDEST PUSH1 0x0 PUSH2 0x7B9 DUP5 DUP3 DUP6 ADD PUSH2 0x780 JUMP JUMPDEST SWAP2 POP POP SWAP3 SWAP2 POP POP JUMP JUMPDEST PUSH32 0x4E487B7100000000000000000000000000000000000000000000000000000000 PUSH1 0x0 MSTORE PUSH1 0x22 PUSH1 0x4 MSTORE PUSH1 0x24 PUSH1 0x0 REVERT JUMPDEST PUSH1 0x0 PUSH1 0x2 DUP3 DIV SWAP1 POP PUSH1 0x1 DUP3 AND DUP1 PUSH2 0x809 JUMPI PUSH1 0x7F DUP3 AND SWAP2 POP JUMPDEST PUSH1 0x20 DUP3 LT DUP2 SUB PUSH2 0x81C JUMPI PUSH2 0x81B PUSH2 0x7C2 JUMP JUMPDEST JUMPDEST POP SWAP2 SWAP1 POP JUMP JUMPDEST PUSH32 0x4F6E6C792074686520646F6D61696E2072656769737472617220636F6E747261 PUSH1 0x0 DUP3 ADD MSTORE PUSH32 0x63742063616E2063616C6C20746869732066756E6374696F6E00000000000000 PUSH1 0x20 DUP3 ADD MSTORE POP JUMP JUMPDEST PUSH1 0x0 PUSH2 0x87E PUSH1 0x39 DUP4 PUSH2 0x632 JUMP JUMPDEST SWAP2 POP PUSH2 0x889 DUP3 PUSH2 0x822 JUMP JUMPDEST PUSH1 0x40 DUP3 ADD SWAP1 POP SWAP2 SWAP1 POP JUMP JUMPDEST PUSH1 0x0 PUSH1 0x20 DUP3 ADD SWAP1 POP DUP2 DUP2 SUB PUSH1 0x0 DUP4 ADD MSTORE PUSH2 0x8AD DUP2 PUSH2 0x871 JUMP JUMPDEST SWAP1 POP SWAP2 SWAP1 POP JUMP INVALID LOG2 PUSH5 0x6970667358 0x22 SLT KECCAK256 0xE3 0xD5 DUP8 0xD 0xAE 0x2E SWAP7 0xE0 0xF8 CALL SWAP2 DUP10 0xEC 0xF MSTORE8 0x5D 0xC TIMESTAMP PUSH21 0x2496B4597160262D88BDAE3A5264736F6C63430008 SLT STOP CALLER "
		},
		"gasEstimates": {
			"creation": {
				"codeDepositCost": "456400",
				"executionCost": "infinite",
				"totalCost": "infinite"
			},
			"external": {
				"extraInfo()": "infinite",
				"hostname()": "infinite",
				"ipaddress()": "infinite",
				"isActive()": "2494",
				"owner()": "2558",
				"publicKey()": "2429",
				"registrar()": "2578",
				"supportsInterface(bytes4)": "685",
				"transferOwnership(address)": "26977"
			}
		},
		"methodIdentifiers": {
			"extraInfo()": "9cda5229",
			"hostname()": "6f4a5a35",
			"ipaddress()": "29dda763",
			"isActive()": "22f3e2d4",
			"owner()": "8da5cb5b",
			"publicKey()": "63ffab31",
			"registrar()": "2b20e397",
			"supportsInterface(bytes4)": "01ffc9a7",
			"transferOwnership(address)": "f2fde38b"
		}
	},
	"abi": [
		{
			"inputs": [
				{
					"internalType": "address",
					"name": "_owner",
					"type": "address"
				},
				{
					"internalType": "string",
					"name": "_hostname",
					"type": "string"
				},
				{
					"internalType": "string",
					"name": "_ipaddress",
					"type": "string"
				},
				{
					"internalType": "bytes32",
					"name": "_publicKey",
					"type": "bytes32"
				},
				{
					"internalType": "string",
					"name": "_extraInfo",
					"type": "string"
				}
			],
			"stateMutability": "nonpayable",
			"type": "constructor"
		},
		{
			"inputs": [],
			"name": "extraInfo",
			"outputs": [
				{
					"internalType": "string",
					"name": "",
					"type": "string"
				}
			],
			"stateMutability": "view",
			"type": "function"
		},
		{
			"inputs": [],
			"name": "hostname",
			"outputs": [
				{
					"internalType": "string",
					"name": "",
					"type": "string"
				}
			],
			"stateMutability": "view",
			"type": "function"
		},
		{
			"inputs": [],
			"name": "ipaddress",
			"outputs": [
				{
					"internalType": "string",
					"name": "",
					"type": "string"
				}
			],
			"stateMutability": "view",
			"type": "function"
		},
		{
			"inputs": [],
			"name": "isActive",
			"outputs": [
				{
					"internalType": "bool",
					"name": "",
					"type": "bool"
				}
			],
			"stateMutability": "view",
			"type": "function"
		},
		{
			"inputs": [],
			"name": "owner",
			"outputs": [
				{
					"internalType": "address",
					"name": "",
					"type": "address"
				}
			],
			"stateMutability": "view",
			"type": "function"
		},
		{
			"inputs": [],
			"name": "publicKey",
			"outputs": [
				{
					"internalType": "bytes32",
					"name": "",
					"type": "bytes32"
				}
			],
			"stateMutability": "view",
			"type": "function"
		},
		{
			"inputs": [],
			"name": "registrar",
			"outputs": [
				{
					"internalType": "address",
					"name": "",
					"type": "address"
				}
			],
			"stateMutability": "view",
			"type": "function"
		},
		{
			"inputs": [
				{
					"internalType": "bytes4",
					"name": "interfaceId",
					"type": "bytes4"
				}
			],
			"name": "supportsInterface",
			"outputs": [
				{
					"internalType": "bool",
					"name": "",
					"type": "bool"
				}
			],
			"stateMutability": "view",
			"type": "function"
		},
		{
			"inputs": [
				{
					"internalType": "address",
					"name": "newOwner",
					"type": "address"
				}
			],
			"name": "transferOwnership",
			"outputs": [],
			"stateMutability": "nonpayable",
			"type": "function"
		}
	]
}